S01A000046696E616C5F636F64655F4D656D626572332E737265633C
S11300000C942A000C9447000C9447000C9447006D
S11300100C9447000C9447000C9447000C94470040
S11300200C9447000C9447000C9447000C94470030
S11300300C9447000C9447000C9447000C94470020
S11300400C9447000C9447000C9447000C94470010
S11300500C94470011241FBECFE5D8E0DEBFCDBF0E
S113006010E0A0E6B0E0E4EBFBE002C005900D92E6
S1130070AE36B107D9F720E0AEE6B0E001C01D927C
S1130080A538B207E1F70E94EA020C94D8050C9453
S113009000008FEF84BB089580E185BB089515BAF5
S11300A008958FEF84BB84B3806884BB089580E493
S11300B085BB089515BA089585B3806885BB0895F6
S11300C085B38F7785BB08950E945C002FEF89E686
S11300D098E1215080409040E1F700C000000E9468
S11300E060002FEF89E698E1215080409040E1F7CD
S11300F000C0000008950E9457002FEF89E698E1A0
S1130100215080409040E1F700C000000E945A0056
S11301102FEF89E698E1215080409040E1F700C03C
S113012000000895CF92DF92EF92FF928FEF84BB8D
S1130130C0906A00D0906B00E0906C00F0906D006D
S113014020E030E040E051E4C701B6010E946B05B5
S11301509B01AC0160E070E084EB93E40E94BB037C
S1130160609378007093790080937A0090937B0079
S113017020E030E040EC50E460916600709167004C
S113018080916800909169000E946B0560937400EF
S113019070937500809376009093770020E030E0B0
S11301A044EB53E40E94BB039B01AC01C701B601BD
S11301B00E946B0560937C0070937D0080937E00A9
S11301C090937F00FF90EF90DF90CF90089581E0AF
S11301D085BB2FEF30E792E0215030409040E1F7AB
S11301E000C0000095E095BB2FEF30E792E021506E
S11301F030409040E1F700C0000094E095BB2FEF41
S113020030E792E0215030409040E1F700C0000018
S113021096E095BB2FEF30E792E0215030409040BC
S1130220E1F700C0000092E095BB2FEF30E792E0C9
S1130230215030409040E1F700C000009AE095BBA7
S11302402FEF30E792E0215030409040E1F700C0BA
S1130250000098E095BB2FEF30E792E0215030404A
S11302609040E1F700C0000099E095BB2FEF30E724
S113027092E0215030409040E1F700C0000085BB7F
S11302802FEF30E782E0215030408040E1F700C09A
S113029000000895CF92DF92EF92FF92CF93DF9305
S11302A06B017C0120E030E0A9010E94660518166C
S11302B00CF0F2C0C0E0D0E081E085BB2FEF80E716
S11302C092E0215080409040E1F700C0000085E0BA
S11302D085BB2FEF80E792E0215080409040E1F70A
S11302E000C00000BE016F5F7F4F072E000C880B1B
S11302F0990B0E945E049B01AC01C701B6010E94E8
S1130300B60318160CF0C8C084E085BB2FEF80E755
S113031092E0215080409040E1F700C00000BE010F
S11303206E5F7F4F072E000C880B990B0E945E04B2
S11303309B01AC01C701B6010E94B60318160CF06C
S1130340ABC086E085BB2FEF80E792E02150804070
S11303509040E1F700C00000BE016D5F7F4F072EA3
S1130360000C880B990B0E945E049B01AC01C70131
S1130370B6010E94B60318160CF08EC082E085BB4D
S11303802FEF80E792E0215080409040E1F700C0D9
S11303900000BE016C5F7F4F072E000C880B990B89
S11303A00E945E049B01AC01C701B6010E94B60322
S11303B018160CF071C08AE085BB2FEF80E792E03D
S11303C0215080409040E1F700C00000BE016B5F07
S11303D07F4F072E000C880B990B0E945E049B0133
S11303E0AC01C701B6010E94B60318160CF054C044
S11303F088E085BB2FEF80E792E021508040904059
S1130400E1F700C00000BE016A5F7F4F072E000CB9
S1130410880B990B0E945E049B01AC01C701B601D5
S11304200E94B6031816C4F589E085BB2FEF80E758
S113043092E0215080409040E1F700C00000BE01EE
S1130440695F7F4F072E000C880B990B0E945E0496
S11304509B01AC01C701B6010E94B6031816E4F46F
S113046081E085BB2FEF80E792E0215080409040EF
S1130470E1F700C000002896BE010D2E000C880B89
S1130480990B0E945E049B01AC01C701B6010E9456
S1130490B60318160CF410CFDF91CF91FF90EF90B4
S11304A0DF90CF9008958F929F92AF92BF92CF9298
S11304B0DF92EF92FF920F931F93CF93DF93C0903D
S11304C06200D0906300E0906400F090650080903A
S11304D0740090907500A0907600B0907700A5010C
S11304E09401C701B6010E94BB030E9499049B01B9
S11304F0AC016093700070937100809372009093CC
S11305007300C501B4010E946B059B01AC01C701D6
S1130510B6010E9449036093800070938100809328
S113052082009093830020917C0030917D00409163
S11305307E0050917F000E94BB030E9499040E9498
S11305402D046093840000E010E01BC00E94E700CB
S1130550219602C0C0E0D0E0BE010D2E000C880B35
S1130560990B0E945E0420917800309179004091AB
S11305707A0050917B000E94B60388233CF30F5FFE
S11305801F4FB801012E000C880B990B0E945E04CA
S1130590209170003091710040917200509173006D
S11305A00E94B6038823B4F26091840070E080E076
S11305B090E00E945C040E944A01DF91CF911F9158
S11305C00F91FF90EF90DF90CF90BF90AF909F90EE
S11305D08F9008950E9451000E9410030E9492007F
S11305E00E94490080916E0090916F000197D1F3B1
S11305F08091600090916100019779F40E947B00E2
S11306000E9414030E9453020E942A030E944C0079
S1130610B59BFCCF0E944F00E5CF0E946400E2CF5F
S113062087B3886087BB089588B3886088BB8FE9E7
S11306309FE00197F1F700C0000088B3877F88BB73
S11306409FEF23ED80E3915020408040E1F700C00C
S1130650000008952FEF83ED90E3215080409040F7
S1130660E1F700C0000088B3886088BB87EB9BE09B
S11306700197F1F700C0000088B3877F88BB9FEF24
S113068023ED80E3915020408040E1F700C000005A
S113069008955058BB27AA270E9461030C9414059F
S11306A00E94060538F00E940D0520F039F49F3FA2
S11306B019F426F40C9403050EF4E095E7FB0C946E
S11306C0D404E92F0E94250558F3BA17620773076B
S11306D08407950720F079F4A6F50C945F050EF4D1
S11306E0E0950B2EBA2FA02D0B01B90190010C013E
S11306F0CA01A0011124FF27591B99F0593F50F456
S1130700503E68F11A16F040A22F232F342F4427AD
S1130710585FF3CF469537952795A795F0405395A5
S1130720C9F77EF41F16BA0B620B730B840BBAF075
S11307309150A1F0FF0FBB1F661F771F881FC2F7E0
S11307400EC0BA0F621F731F841F48F487957795F4
S11307506795B795F7959E3F08F0B0CF9395880FAE
S113076008F09927EE0F9795879508950E94B00495
S113077008F481E008950E94CF030C9414050E94AC
S11307800D0558F00E94060540F029F45F3F29F05A
S11307900C94D40451110C9460050C9403050E942C
S11307A0250568F39923B1F3552391F3951B550B54
S11307B0BB27AA2762177307840738F09F5F5F4F30
S11307C0220F331F441FAA1FA9F335D00E2E3AF06F
S11307D0E0E832D091505040E695001CCAF72BD087
S11307E0FE2F29D0660F771F881FBB1F26173707D8
S11307F04807AB07B0E809F0BB0B802DBF01FF270A
S113080093585F4F3AF09E3F510578F00C94D4040E
S11308100C9460055F3FE4F3983ED4F38695779596
S11308206795B795F7959F5FC9F7880F911D9695C2
S1130830879597F90895E1E0660F771F881FBB1F1E
S1130840621773078407BA0720F0621B730B840BCB
S1130850BA0BEE1F88F7E09508950E942D0588F0E5
S11308609F5798F0B92F9927B751B0F0E1F0660F70
S1130870771F881F991F1AF0BA95C9F714C0B130B1
S113088091F00E945F05B1E008950C945F05672F15
S1130890782F8827B85F39F0B93FCCF386957795E0
S11308A06795B395D9F73EF49095809570956195C9
S11308B07F4F8F4F9F4F0895E89409C097FB3EF4F4
S11308C090958095709561957F4F8F4F9F4F992399
S11308D0A9F0F92F96E9BB279395F6958795779517
S11308E06795B795F111F8CFFAF4BB0F11F460FFD7
S11308F01BC06F5F7F4F8F4F9F4F16C0882311F02F
S113090096E911C0772321F09EE8872F762F05C042
S1130910662371F096E8862F70E060E02AF09A95DD
S1130920660F771F881FDAF7880F9695879597F9D2
S113093008950E94470590F09F3748F4911116F0EE
S11309400C94600560E070E080E89FEB089526F465
S11309501B16611D711D811D0C94DA040C94F504A1
S1130960990F0008550FAA0BE0E8FEEF16161706BC
S1130970E807F907C0F012161306E407F50798F024
S1130980621B730B840B950B39F40A2661F0232B3D
S1130990242B252B21F408950A2609F4A140A695B9
S11309A08FEF811D811D089597F99F6780E870E09E
S11309B060E00895882371F4772321F09850872B01
S11309C0762F07C0662311F499270DC09051862B0A
S11309D070E060E02AF09A95660F771F881FDAF7B7
S11309E0880F9695879597F908959F3F31F0915018
S11309F020F4879577956795B795880F911D9695FF
S1130A00879597F908959FEF80EC089500240A9440
S1130A101616170618060906089500240A941216D5
S1130A201306140605060895092E0394000C11F408
S1130A30882352F0BB0F40F4BF2B11F460FF04C0B5
S1130A406F5F7F4F8F4F9F4F089557FD9058440F0E
S1130A50551F59F05F3F71F04795880F97FB991F19
S1130A6061F09F3F79F087950895121613061406D6
S1130A70551FF2CF4695F1DF08C016161706180663
S1130A80991FF1CF869571056105089408950E9418
S1130A902D05A0F0BEE7B91788F4BB279F3860F492
S1130AA01616B11D672F782F8827985FF7CF869584
S1130AB077956795B11D93959639C8F30895E89491
S1130AC0BB2766277727CB0197F908950E94B004C6
S1130AD008F48FEF08950E947E050C9414050E947B
S1130AE0060538F00E940D0520F0952311F00C94B2
S1130AF0D4040C94030511240C9460050E9425056C
S1130B0070F3959FC1F3950F50E0551F629FF0015C
S1130B10729FBB27F00DB11D639FAA27F00DB11D75
S1130B20AA1F649F6627B00DA11D661F829F2227FE
S1130B30B00DA11D621F739FB00DA11D621F839F85
S1130B40A00D611D221F749F3327A00D611D231F5B
S1130B50849F600D211D822F762F6A2F11249F57A9
S1130B6050409AF0F1F088234AF0EE0FFF1FBB1FAC
S1130B70661F771F881F91505040A9F79E3F51056B
S1130B8080F00C94D4040C9460055F3FE4F3983E29
S1130B90D4F3869577956795B795F795E7959F5F15
S1130BA0C1F7FE2B880F911D9695879597F90895A7
S1070BB0F894FFCFE3
S1110BB401000000A5430000C84100003442C7
S9030000FC
